{
  "_format": "hh-sol-artifact-1",
  "contractName": "NFTMarketplace",
  "sourceName": "contracts/NFTMarketplace.sol",
  "abi": [
    {
      "inputs": [],
      "stateMutability": "nonpayable",
      "type": "constructor"
    },
    {
      "anonymous": false,
      "inputs": [
        {
          "indexed": true,
          "internalType": "address",
          "name": "owner",
          "type": "address"
        },
        {
          "indexed": true,
          "internalType": "address",
          "name": "approved",
          "type": "address"
        },
        {
          "indexed": true,
          "internalType": "uint256",
          "name": "tokenId",
          "type": "uint256"
        }
      ],
      "name": "Approval",
      "type": "event"
    },
    {
      "anonymous": false,
      "inputs": [
        {
          "indexed": true,
          "internalType": "address",
          "name": "owner",
          "type": "address"
        },
        {
          "indexed": true,
          "internalType": "address",
          "name": "operator",
          "type": "address"
        },
        {
          "indexed": false,
          "internalType": "bool",
          "name": "approved",
          "type": "bool"
        }
      ],
      "name": "ApprovalForAll",
      "type": "event"
    },
    {
      "anonymous": false,
      "inputs": [
        {
          "indexed": true,
          "internalType": "uint256",
          "name": "tokenId",
          "type": "uint256"
        },
        {
          "indexed": false,
          "internalType": "address",
          "name": "seller",
          "type": "address"
        },
        {
          "indexed": false,
          "internalType": "address",
          "name": "owner",
          "type": "address"
        },
        {
          "indexed": false,
          "internalType": "uint256",
          "name": "price",
          "type": "uint256"
        },
        {
          "indexed": false,
          "internalType": "bool",
          "name": "sold",
          "type": "bool"
        }
      ],
      "name": "MarketItemCreated",
      "type": "event"
    },
    {
      "anonymous": false,
      "inputs": [
        {
          "indexed": true,
          "internalType": "address",
          "name": "from",
          "type": "address"
        },
        {
          "indexed": true,
          "internalType": "address",
          "name": "to",
          "type": "address"
        },
        {
          "indexed": true,
          "internalType": "uint256",
          "name": "tokenId",
          "type": "uint256"
        }
      ],
      "name": "Transfer",
      "type": "event"
    },
    {
      "inputs": [
        {
          "internalType": "address",
          "name": "to",
          "type": "address"
        },
        {
          "internalType": "uint256",
          "name": "tokenId",
          "type": "uint256"
        }
      ],
      "name": "approve",
      "outputs": [],
      "stateMutability": "nonpayable",
      "type": "function"
    },
    {
      "inputs": [
        {
          "internalType": "address",
          "name": "owner",
          "type": "address"
        }
      ],
      "name": "balanceOf",
      "outputs": [
        {
          "internalType": "uint256",
          "name": "",
          "type": "uint256"
        }
      ],
      "stateMutability": "view",
      "type": "function"
    },
    {
      "inputs": [
        {
          "internalType": "uint256",
          "name": "tokenId",
          "type": "uint256"
        }
      ],
      "name": "createMarketSale",
      "outputs": [],
      "stateMutability": "payable",
      "type": "function"
    },
    {
      "inputs": [
        {
          "internalType": "string",
          "name": "tokenURI",
          "type": "string"
        },
        {
          "internalType": "uint256",
          "name": "price",
          "type": "uint256"
        }
      ],
      "name": "createToken",
      "outputs": [
        {
          "internalType": "uint256",
          "name": "",
          "type": "uint256"
        }
      ],
      "stateMutability": "payable",
      "type": "function"
    },
    {
      "inputs": [],
      "name": "fetchItemsListed",
      "outputs": [
        {
          "components": [
            {
              "internalType": "uint256",
              "name": "tokenId",
              "type": "uint256"
            },
            {
              "internalType": "address payable",
              "name": "seller",
              "type": "address"
            },
            {
              "internalType": "address payable",
              "name": "owner",
              "type": "address"
            },
            {
              "internalType": "uint256",
              "name": "price",
              "type": "uint256"
            },
            {
              "internalType": "bool",
              "name": "sold",
              "type": "bool"
            }
          ],
          "internalType": "struct NFTMarketplace.MarketItem[]",
          "name": "",
          "type": "tuple[]"
        }
      ],
      "stateMutability": "view",
      "type": "function"
    },
    {
      "inputs": [],
      "name": "fetchMarketItems",
      "outputs": [
        {
          "components": [
            {
              "internalType": "uint256",
              "name": "tokenId",
              "type": "uint256"
            },
            {
              "internalType": "address payable",
              "name": "seller",
              "type": "address"
            },
            {
              "internalType": "address payable",
              "name": "owner",
              "type": "address"
            },
            {
              "internalType": "uint256",
              "name": "price",
              "type": "uint256"
            },
            {
              "internalType": "bool",
              "name": "sold",
              "type": "bool"
            }
          ],
          "internalType": "struct NFTMarketplace.MarketItem[]",
          "name": "",
          "type": "tuple[]"
        }
      ],
      "stateMutability": "view",
      "type": "function"
    },
    {
      "inputs": [],
      "name": "fetchMyNFTs",
      "outputs": [
        {
          "components": [
            {
              "internalType": "uint256",
              "name": "tokenId",
              "type": "uint256"
            },
            {
              "internalType": "address payable",
              "name": "seller",
              "type": "address"
            },
            {
              "internalType": "address payable",
              "name": "owner",
              "type": "address"
            },
            {
              "internalType": "uint256",
              "name": "price",
              "type": "uint256"
            },
            {
              "internalType": "bool",
              "name": "sold",
              "type": "bool"
            }
          ],
          "internalType": "struct NFTMarketplace.MarketItem[]",
          "name": "",
          "type": "tuple[]"
        }
      ],
      "stateMutability": "view",
      "type": "function"
    },
    {
      "inputs": [
        {
          "internalType": "uint256",
          "name": "tokenId",
          "type": "uint256"
        }
      ],
      "name": "getApproved",
      "outputs": [
        {
          "internalType": "address",
          "name": "",
          "type": "address"
        }
      ],
      "stateMutability": "view",
      "type": "function"
    },
    {
      "inputs": [],
      "name": "getListingPrice",
      "outputs": [
        {
          "internalType": "uint256",
          "name": "",
          "type": "uint256"
        }
      ],
      "stateMutability": "view",
      "type": "function"
    },
    {
      "inputs": [],
      "name": "getOwnerCommissionPercentage",
      "outputs": [
        {
          "internalType": "uint256",
          "name": "",
          "type": "uint256"
        }
      ],
      "stateMutability": "view",
      "type": "function"
    },
    {
      "inputs": [
        {
          "internalType": "address",
          "name": "owner",
          "type": "address"
        },
        {
          "internalType": "address",
          "name": "operator",
          "type": "address"
        }
      ],
      "name": "isApprovedForAll",
      "outputs": [
        {
          "internalType": "bool",
          "name": "",
          "type": "bool"
        }
      ],
      "stateMutability": "view",
      "type": "function"
    },
    {
      "inputs": [],
      "name": "name",
      "outputs": [
        {
          "internalType": "string",
          "name": "",
          "type": "string"
        }
      ],
      "stateMutability": "view",
      "type": "function"
    },
    {
      "inputs": [
        {
          "internalType": "uint256",
          "name": "tokenId",
          "type": "uint256"
        }
      ],
      "name": "ownerOf",
      "outputs": [
        {
          "internalType": "address",
          "name": "",
          "type": "address"
        }
      ],
      "stateMutability": "view",
      "type": "function"
    },
    {
      "inputs": [
        {
          "internalType": "uint256",
          "name": "tokenId",
          "type": "uint256"
        },
        {
          "internalType": "uint256",
          "name": "price",
          "type": "uint256"
        }
      ],
      "name": "resellToken",
      "outputs": [],
      "stateMutability": "payable",
      "type": "function"
    },
    {
      "inputs": [
        {
          "internalType": "address",
          "name": "from",
          "type": "address"
        },
        {
          "internalType": "address",
          "name": "to",
          "type": "address"
        },
        {
          "internalType": "uint256",
          "name": "tokenId",
          "type": "uint256"
        }
      ],
      "name": "safeTransferFrom",
      "outputs": [],
      "stateMutability": "nonpayable",
      "type": "function"
    },
    {
      "inputs": [
        {
          "internalType": "address",
          "name": "from",
          "type": "address"
        },
        {
          "internalType": "address",
          "name": "to",
          "type": "address"
        },
        {
          "internalType": "uint256",
          "name": "tokenId",
          "type": "uint256"
        },
        {
          "internalType": "bytes",
          "name": "data",
          "type": "bytes"
        }
      ],
      "name": "safeTransferFrom",
      "outputs": [],
      "stateMutability": "nonpayable",
      "type": "function"
    },
    {
      "inputs": [
        {
          "internalType": "address",
          "name": "operator",
          "type": "address"
        },
        {
          "internalType": "bool",
          "name": "approved",
          "type": "bool"
        }
      ],
      "name": "setApprovalForAll",
      "outputs": [],
      "stateMutability": "nonpayable",
      "type": "function"
    },
    {
      "inputs": [
        {
          "internalType": "bytes4",
          "name": "interfaceId",
          "type": "bytes4"
        }
      ],
      "name": "supportsInterface",
      "outputs": [
        {
          "internalType": "bool",
          "name": "",
          "type": "bool"
        }
      ],
      "stateMutability": "view",
      "type": "function"
    },
    {
      "inputs": [],
      "name": "symbol",
      "outputs": [
        {
          "internalType": "string",
          "name": "",
          "type": "string"
        }
      ],
      "stateMutability": "view",
      "type": "function"
    },
    {
      "inputs": [
        {
          "internalType": "uint256",
          "name": "tokenId",
          "type": "uint256"
        }
      ],
      "name": "tokenURI",
      "outputs": [
        {
          "internalType": "string",
          "name": "",
          "type": "string"
        }
      ],
      "stateMutability": "view",
      "type": "function"
    },
    {
      "inputs": [
        {
          "internalType": "address",
          "name": "from",
          "type": "address"
        },
        {
          "internalType": "address",
          "name": "to",
          "type": "address"
        },
        {
          "internalType": "uint256",
          "name": "tokenId",
          "type": "uint256"
        }
      ],
      "name": "transferFrom",
      "outputs": [],
      "stateMutability": "nonpayable",
      "type": "function"
    },
    {
      "inputs": [
        {
          "internalType": "uint256",
          "name": "_listingPrice",
          "type": "uint256"
        }
      ],
      "name": "updateListingPrice",
      "outputs": [],
      "stateMutability": "payable",
      "type": "function"
    },
    {
      "inputs": [
        {
          "internalType": "uint256",
          "name": "_ownerCommissionPercentage",
          "type": "uint256"
        }
      ],
      "name": "updateOwnerCommissionPercentage",
      "outputs": [],
      "stateMutability": "payable",
      "type": "function"
    }
  ],
  "bytecode": "0x6080604052662386f26fc10000600955600f600a81905562000024906103e8620000ac565b600b553480156200003457600080fd5b50604051806040016040528060078152602001664172746279746560c81b8152506040518060400160405280600381526020016210549560ea1b815250816000908162000082919062000179565b50600162000091828262000179565b5050600c80546001600160a01b031916331790555062000245565b81810381811115620000ce57634e487b7160e01b600052601160045260246000fd5b92915050565b634e487b7160e01b600052604160045260246000fd5b600181811c90821680620000ff57607f821691505b6020821081036200012057634e487b7160e01b600052602260045260246000fd5b50919050565b601f8211156200017457600081815260208120601f850160051c810160208610156200014f5750805b601f850160051c820191505b8181101562000170578281556001016200015b565b5050505b505050565b81516001600160401b03811115620001955762000195620000d4565b620001ad81620001a68454620000ea565b8462000126565b602080601f831160018114620001e55760008415620001cc5750858301515b600019600386901b1c1916600185901b17855562000170565b600085815260208120601f198616915b828110156200021657888601518255948401946001909101908401620001f5565b5085821015620002355787850151600019600388901b60f8161c191681555b5050505050600190811b01905550565b61246280620002556000396000f3fe6080604052600436106101405760003560e01c80636352211e116100b6578063b88d4fde1161006f578063b88d4fde1461034f578063be9af5361461036f578063c87b56dd14610382578063e219fc75146103a2578063e985e9c5146103b5578063f060a447146103fe57600080fd5b80636352211e146102b457806370a08231146102d457806372b3b620146102f457806395d89b4114610307578063a22cb4651461031c578063ae677aa31461033c57600080fd5b806312e855851161010857806312e8558514610218578063202e37401461023757806323b872dd1461024c5780633ff7abca1461026c57806342842e0e1461027f57806345f8fa801461029f57600080fd5b806301ffc9a71461014557806306fdde031461017a578063081812fc1461019c578063095ea7b3146101d45780630f08efe0146101f6575b600080fd5b34801561015157600080fd5b50610165610160366004611c98565b610413565b60405190151581526020015b60405180910390f35b34801561018657600080fd5b5061018f610465565b6040516101719190611d05565b3480156101a857600080fd5b506101bc6101b7366004611d18565b6104f7565b6040516001600160a01b039091168152602001610171565b3480156101e057600080fd5b506101f46101ef366004611d4d565b61051e565b005b34801561020257600080fd5b5061020b610638565b6040516101719190611d77565b34801561022457600080fd5b506009545b604051908152602001610171565b34801561024357600080fd5b5061020b6107cf565b34801561025857600080fd5b506101f4610267366004611df3565b6109a3565b6101f461027a366004611d18565b6109d4565b34801561028b57600080fd5b506101f461029a366004611df3565b610a03565b3480156102ab57600080fd5b5061020b610a1e565b3480156102c057600080fd5b506101bc6102cf366004611d18565b610bf2565b3480156102e057600080fd5b506102296102ef366004611e2f565b610c52565b610229610302366004611ed6565b610cd8565b34801561031357600080fd5b5061018f610d1a565b34801561032857600080fd5b506101f4610337366004611f2f565b610d29565b6101f461034a366004611d18565b610d38565b34801561035b57600080fd5b506101f461036a366004611f6b565b610d67565b6101f461037d366004611d18565b610d9f565b34801561038e57600080fd5b5061018f61039d366004611d18565b610f4c565b6101f46103b0366004611fe7565b61105c565b3480156103c157600080fd5b506101656103d0366004612009565b6001600160a01b03918216600090815260056020908152604080832093909416825291909152205460ff1690565b34801561040a57600080fd5b50600a54610229565b60006001600160e01b031982166380ac58cd60e01b148061044457506001600160e01b03198216635b5e139f60e01b145b8061045f57506301ffc9a760e01b6001600160e01b03198316145b92915050565b6060600080546104749061203c565b80601f01602080910402602001604051908101604052809291908181526020018280546104a09061203c565b80156104ed5780601f106104c2576101008083540402835291602001916104ed565b820191906000526020600020905b8154815290600101906020018083116104d057829003601f168201915b5050505050905090565b600061050282611154565b506000908152600460205260409020546001600160a01b031690565b600061052982610bf2565b9050806001600160a01b0316836001600160a01b03160361059b5760405162461bcd60e51b815260206004820152602160248201527f4552433732313a20617070726f76616c20746f2063757272656e74206f776e656044820152603960f91b60648201526084015b60405180910390fd5b336001600160a01b03821614806105b757506105b781336103d0565b6106295760405162461bcd60e51b815260206004820152603d60248201527f4552433732313a20617070726f76652063616c6c6572206973206e6f7420746f60448201527f6b656e206f776e6572206f7220617070726f76656420666f7220616c6c0000006064820152608401610592565b61063383836111b6565b505050565b6060600061064560075490565b9050600061065260085490565b60075461065f919061208c565b90506000808267ffffffffffffffff81111561067d5761067d611e4a565b6040519080825280602002602001820160405280156106d657816020015b6040805160a08101825260008082526020808301829052928201819052606082018190526080820152825260001990920191018161069b5790505b50905060005b848110156107c65730600d60006106f484600161209f565b81526020810191909152604001600020600201546001600160a01b0316036107b457600061072382600161209f565b6000818152600d6020908152604091829020825160a0810184528154815260018201546001600160a01b039081169382019390935260028201549092169282019290925260038201546060820152600482015460ff161515608082015285519293509091859087908110610799576107996120b2565b60209081029190910101526107af60018661209f565b945050505b806107be816120c8565b9150506106dc565b50949350505050565b606060006107dc60075490565b905060008060005b8381101561083e5733600d60006107fc84600161209f565b81526020810191909152604001600020600201546001600160a01b03160361082c5761082960018461209f565b92505b80610836816120c8565b9150506107e4565b5060008267ffffffffffffffff81111561085a5761085a611e4a565b6040519080825280602002602001820160405280156108b357816020015b6040805160a0810182526000808252602080830182905292820181905260608201819052608082015282526000199092019101816108785790505b50905060005b848110156107c65733600d60006108d184600161209f565b81526020810191909152604001600020600201546001600160a01b03160361099157600061090082600161209f565b6000818152600d6020908152604091829020825160a0810184528154815260018201546001600160a01b039081169382019390935260028201549092169282019290925260038201546060820152600482015460ff161515608082015285519293509091859087908110610976576109766120b2565b602090810291909101015261098c60018661209f565b945050505b8061099b816120c8565b9150506108b9565b6109ad3382611224565b6109c95760405162461bcd60e51b8152600401610592906120e1565b6106338383836112a2565b600c546001600160a01b031633146109fe5760405162461bcd60e51b81526004016105929061212e565b600a55565b61063383838360405180602001604052806000815250610d67565b60606000610a2b60075490565b905060008060005b83811015610a8d5733600d6000610a4b84600161209f565b81526020810191909152604001600020600101546001600160a01b031603610a7b57610a7860018461209f565b92505b80610a85816120c8565b915050610a33565b5060008267ffffffffffffffff811115610aa957610aa9611e4a565b604051908082528060200260200182016040528015610b0257816020015b6040805160a081018252600080825260208083018290529282018190526060820181905260808201528252600019909201910181610ac75790505b50905060005b848110156107c65733600d6000610b2084600161209f565b81526020810191909152604001600020600101546001600160a01b031603610be0576000610b4f82600161209f565b6000818152600d6020908152604091829020825160a0810184528154815260018201546001600160a01b039081169382019390935260028201549092169282019290925260038201546060820152600482015460ff161515608082015285519293509091859087908110610bc557610bc56120b2565b6020908102919091010152610bdb60018661209f565b945050505b80610bea816120c8565b915050610b08565b6000818152600260205260408120546001600160a01b03168061045f5760405162461bcd60e51b8152602060048201526018602482015277115490cdcc8c4e881a5b9d985b1a59081d1bdad95b88125160421b6044820152606401610592565b60006001600160a01b038216610cbc5760405162461bcd60e51b815260206004820152602960248201527f4552433732313a2061646472657373207a65726f206973206e6f7420612076616044820152683634b21037bbb732b960b91b6064820152608401610592565b506001600160a01b031660009081526003602052604090205490565b6000610ce8600780546001019055565b6000610cf360075490565b9050610cff3382611413565b610d0981856115ac565b610d13818461163f565b9392505050565b6060600180546104749061203c565b610d34338383611795565b5050565b600c546001600160a01b03163314610d625760405162461bcd60e51b81526004016105929061212e565b600955565b610d713383611224565b610d8d5760405162461bcd60e51b8152600401610592906120e1565b610d9984848484611863565b50505050565b6000818152600d6020526040902060038101546001909101546001600160a01b0316348214610e365760405162461bcd60e51b815260206004820152603760248201527f506c65617365207375626d6974207468652061736b696e67207072696365207460448201527f6f20636f6d706c657465207468652070757263686173650000000000000000006064820152608401610592565b6000838152600d602052604090206002810180546001600160a01b0319908116331790915560048201805460ff1916600190811790915590910180549091169055610e85600880546001019055565b610e903033856112a2565b600c546009546040516001600160a01b039092169181156108fc0291906000818181858888f19350505050158015610ecc573d6000803e3d6000fd5b50600c546001600160a01b03166108fc610ee534611896565b6040518115909202916000818181858888f19350505050158015610f0d573d6000803e3d6000fd5b50806001600160a01b03166108fc610f24346118b2565b6040518115909202916000818181858888f19350505050158015610d99573d6000803e3d6000fd5b6060610f5782611154565b60008281526006602052604081208054610f709061203c565b80601f0160208091040260200160405190810160405280929190818152602001828054610f9c9061203c565b8015610fe95780601f10610fbe57610100808354040283529160200191610fe9565b820191906000526020600020905b815481529060010190602001808311610fcc57829003601f168201915b50505050509050600061100760408051602081019091526000815290565b90508051600003611019575092915050565b81511561104b578082604051602001611033929190612181565b60405160208183030381529060405292505050919050565b611054846118c4565b949350505050565b6000828152600d60205260409020600201546001600160a01b031633146110d85760405162461bcd60e51b815260206004820152602a60248201527f4f6e6c79204974656d204f776e65722063616e20706572666f726d20746869736044820152691037b832b930ba34b7b760b11b6064820152608401610592565b60095434146110f95760405162461bcd60e51b8152600401610592906121b0565b6000828152600d6020526040902060048101805460ff19169055600381018290556001810180546001600160a01b0319908116331790915560029091018054909116301790556111496008611937565b610d343330846112a2565b6000818152600260205260409020546001600160a01b03166111b35760405162461bcd60e51b8152602060048201526018602482015277115490cdcc8c4e881a5b9d985b1a59081d1bdad95b88125160421b6044820152606401610592565b50565b600081815260046020526040902080546001600160a01b0319166001600160a01b03841690811790915581906111eb82610bf2565b6001600160a01b03167f8c5be1e5ebec7d5bd14f71427d1e84f3dd0314c0f7b2291e5b200ac8c7c3b92560405160405180910390a45050565b60008061123083610bf2565b9050806001600160a01b0316846001600160a01b0316148061127757506001600160a01b0380821660009081526005602090815260408083209388168352929052205460ff165b806110545750836001600160a01b0316611290846104f7565b6001600160a01b031614949350505050565b826001600160a01b03166112b582610bf2565b6001600160a01b0316146112db5760405162461bcd60e51b8152600401610592906121f4565b6001600160a01b03821661133d5760405162461bcd60e51b8152602060048201526024808201527f4552433732313a207472616e7366657220746f20746865207a65726f206164646044820152637265737360e01b6064820152608401610592565b61134a838383600161198e565b826001600160a01b031661135d82610bf2565b6001600160a01b0316146113835760405162461bcd60e51b8152600401610592906121f4565b600081815260046020908152604080832080546001600160a01b03199081169091556001600160a01b0387811680865260038552838620805460001901905590871680865283862080546001019055868652600290945282852080549092168417909155905184937fddf252ad1be2c89b69c2b068fc378daa952ba7f163c4a11628f55a4df523b3ef91a4505050565b6001600160a01b0382166114695760405162461bcd60e51b815260206004820181905260248201527f4552433732313a206d696e7420746f20746865207a65726f20616464726573736044820152606401610592565b6000818152600260205260409020546001600160a01b0316156114ce5760405162461bcd60e51b815260206004820152601c60248201527f4552433732313a20746f6b656e20616c7265616479206d696e746564000000006044820152606401610592565b6114dc60008383600161198e565b6000818152600260205260409020546001600160a01b0316156115415760405162461bcd60e51b815260206004820152601c60248201527f4552433732313a20746f6b656e20616c7265616479206d696e746564000000006044820152606401610592565b6001600160a01b038216600081815260036020908152604080832080546001019055848352600290915280822080546001600160a01b0319168417905551839291907fddf252ad1be2c89b69c2b068fc378daa952ba7f163c4a11628f55a4df523b3ef908290a45050565b6000828152600260205260409020546001600160a01b03166116275760405162461bcd60e51b815260206004820152602e60248201527f45524337323155524953746f726167653a2055524920736574206f66206e6f6e60448201526d32bc34b9ba32b73a103a37b5b2b760911b6064820152608401610592565b60008281526006602052604090206106338282612287565b6000811161168f5760405162461bcd60e51b815260206004820152601860248201527f5072696365206d757374206265206174206c65617374203100000000000000006044820152606401610592565b60095434146116b05760405162461bcd60e51b8152600401610592906121b0565b6040805160a08101825283815233602080830182815230848601818152606086018881526000608088018181528b8252600d909652979097209551865591516001860180546001600160a01b03199081166001600160a01b0393841617909155925160028701805490941691161790915593516003840155516004909201805460ff19169215159290921790915561174891846112a2565b604080513381523060208201529081018290526000606082015282907fb640004f1d14576d0c209e240cad0410e0d8c0c33a09375861fbadae2588a98d9060800160405180910390a25050565b816001600160a01b0316836001600160a01b0316036117f65760405162461bcd60e51b815260206004820152601960248201527f4552433732313a20617070726f766520746f2063616c6c6572000000000000006044820152606401610592565b6001600160a01b03838116600081815260056020908152604080832094871680845294825291829020805460ff191686151590811790915591519182527f17307eab39ab6107e8899845ad3d59bd9653f200f220920489ca2b5937696c31910160405180910390a3505050565b61186e8484846112a2565b61187a84848484611a16565b610d995760405162461bcd60e51b815260040161059290612347565b600a546000906118a86103e884612399565b61045f91906123bb565b600b546000906118a86103e884612399565b60606118cf82611154565b60006118e660408051602081019091526000815290565b905060008151116119065760405180602001604052806000815250610d13565b8061191084611b17565b604051602001611921929190612181565b6040516020818303038152906040529392505050565b8054806119865760405162461bcd60e51b815260206004820152601b60248201527f436f756e7465723a2064656372656d656e74206f766572666c6f7700000000006044820152606401610592565b600019019055565b6001811115610d99576001600160a01b038416156119d4576001600160a01b038416600090815260036020526040812080548392906119ce90849061208c565b90915550505b6001600160a01b03831615610d99576001600160a01b03831660009081526003602052604081208054839290611a0b90849061209f565b909155505050505050565b60006001600160a01b0384163b15611b0c57604051630a85bd0160e11b81526001600160a01b0385169063150b7a0290611a5a9033908990889088906004016123d2565b6020604051808303816000875af1925050508015611a95575060408051601f3d908101601f19168201909252611a929181019061240f565b60015b611af2573d808015611ac3576040519150601f19603f3d011682016040523d82523d6000602084013e611ac8565b606091505b508051600003611aea5760405162461bcd60e51b815260040161059290612347565b805181602001fd5b6001600160e01b031916630a85bd0160e11b149050611054565b506001949350505050565b60606000611b2483611baa565b600101905060008167ffffffffffffffff811115611b4457611b44611e4a565b6040519080825280601f01601f191660200182016040528015611b6e576020820181803683370190505b5090508181016020015b600019016f181899199a1a9b1b9c1cb0b131b232b360811b600a86061a8153600a8504945084611b7857509392505050565b60008072184f03e93ff9f4daa797ed6e38ed64bf6a1f0160401b8310611be95772184f03e93ff9f4daa797ed6e38ed64bf6a1f0160401b830492506040015b6d04ee2d6d415b85acef81000000008310611c15576d04ee2d6d415b85acef8100000000830492506020015b662386f26fc100008310611c3357662386f26fc10000830492506010015b6305f5e1008310611c4b576305f5e100830492506008015b6127108310611c5f57612710830492506004015b60648310611c71576064830492506002015b600a831061045f5760010192915050565b6001600160e01b0319811681146111b357600080fd5b600060208284031215611caa57600080fd5b8135610d1381611c82565b60005b83811015611cd0578181015183820152602001611cb8565b50506000910152565b60008151808452611cf1816020860160208601611cb5565b601f01601f19169290920160200192915050565b602081526000610d136020830184611cd9565b600060208284031215611d2a57600080fd5b5035919050565b80356001600160a01b0381168114611d4857600080fd5b919050565b60008060408385031215611d6057600080fd5b611d6983611d31565b946020939093013593505050565b602080825282518282018190526000919060409081850190868401855b82811015611de657815180518552868101516001600160a01b03908116888701528682015116868601526060808201519086015260809081015115159085015260a09093019290850190600101611d94565b5091979650505050505050565b600080600060608486031215611e0857600080fd5b611e1184611d31565b9250611e1f60208501611d31565b9150604084013590509250925092565b600060208284031215611e4157600080fd5b610d1382611d31565b634e487b7160e01b600052604160045260246000fd5b600067ffffffffffffffff80841115611e7b57611e7b611e4a565b604051601f8501601f19908116603f01168101908282118183101715611ea357611ea3611e4a565b81604052809350858152868686011115611ebc57600080fd5b858560208301376000602087830101525050509392505050565b60008060408385031215611ee957600080fd5b823567ffffffffffffffff811115611f0057600080fd5b8301601f81018513611f1157600080fd5b611f2085823560208401611e60565b95602094909401359450505050565b60008060408385031215611f4257600080fd5b611f4b83611d31565b915060208301358015158114611f6057600080fd5b809150509250929050565b60008060008060808587031215611f8157600080fd5b611f8a85611d31565b9350611f9860208601611d31565b925060408501359150606085013567ffffffffffffffff811115611fbb57600080fd5b8501601f81018713611fcc57600080fd5b611fdb87823560208401611e60565b91505092959194509250565b60008060408385031215611ffa57600080fd5b50508035926020909101359150565b6000806040838503121561201c57600080fd5b61202583611d31565b915061203360208401611d31565b90509250929050565b600181811c9082168061205057607f821691505b60208210810361207057634e487b7160e01b600052602260045260246000fd5b50919050565b634e487b7160e01b600052601160045260246000fd5b8181038181111561045f5761045f612076565b8082018082111561045f5761045f612076565b634e487b7160e01b600052603260045260246000fd5b6000600182016120da576120da612076565b5060010190565b6020808252602d908201527f4552433732313a2063616c6c6572206973206e6f7420746f6b656e206f776e6560408201526c1c881bdc88185c1c1c9bdd9959609a1b606082015260800190565b60208082526033908201527f4f6e6c79206d61726b6574706c616365206f776e65722063616e2075706461746040820152726520746865206c697374696e6720707269636560681b606082015260800190565b60008351612193818460208801611cb5565b8351908301906121a7818360208801611cb5565b01949350505050565b60208082526024908201527f5072696365206d75737420626520657175616c20746f206c697374696e6720706040820152637269636560e01b606082015260800190565b60208082526025908201527f4552433732313a207472616e736665722066726f6d20696e636f72726563742060408201526437bbb732b960d91b606082015260800190565b601f82111561063357600081815260208120601f850160051c810160208610156122605750805b601f850160051c820191505b8181101561227f5782815560010161226c565b505050505050565b815167ffffffffffffffff8111156122a1576122a1611e4a565b6122b5816122af845461203c565b84612239565b602080601f8311600181146122ea57600084156122d25750858301515b600019600386901b1c1916600185901b17855561227f565b600085815260208120601f198616915b82811015612319578886015182559484019460019091019084016122fa565b50858210156123375787850151600019600388901b60f8161c191681555b5050505050600190811b01905550565b60208082526032908201527f4552433732313a207472616e7366657220746f206e6f6e20455243373231526560408201527131b2b4bb32b91034b6b83632b6b2b73a32b960711b606082015260800190565b6000826123b657634e487b7160e01b600052601260045260246000fd5b500490565b808202811582820484141761045f5761045f612076565b6001600160a01b038581168252841660208201526040810183905260806060820181905260009061240590830184611cd9565b9695505050505050565b60006020828403121561242157600080fd5b8151610d1381611c8256fea2646970667358221220531649b1b063f144dc78354299a7f19c2c05b9cfb98e5f3b1b906f78d4c096a064736f6c63430008110033",
  "linkReferences": {},
  "deployedLinkReferences": {}
}